:020000040800F2
:10000000C00A002091010008752800083D2400085E
:10001000DD27000851070008B12F0008000000008C
:10002000000000000000000000000000912800080F
:10003000BB0700080000000077280008912900088D
:10004000AB010008AB010008AB010008AB010008E0
:10005000AB010008AB010008AB010008AB010008D0
:10006000AB010008AB010008AB0100085507000810
:10007000610700086D07000879070008AB01000858
:1000800085070008AB010008AB010008AB010008C0
:10009000AB010008AB010008AB010008AB01000890
:1000A000AB010008AB010008AB010008AB01000880
:1000B000112A0008AB010008AB010008AB010008E1
:1000C000AB010008AB010008AB010008AB01000860
:1000D000AB010008AB010008A52F0008AB01000828
:1000E000AB010008AB010008AB01000800F002F80A
:1000F00000F03FF80AA090E8000C82448344AAF183
:100100000107DA4501D100F034F8AFF2090EBAE880
:100110000F0013F0010F18BFFB1A43F0010318473B
:10012000D0380000F0380000103A24BF78C878C1F9
:10013000FAD8520724BF30C830C144BF04680C60ED
:10014000704700000023002400250026103A28BF35
:1001500078C1FBD8520728BF30C148BF0B60704739
:10016000642900F04380002070471FB51FBD10B503
:1001700010BD00F0F1F91146FFF7F7FF03F0EAF8C0
:1001800000F00FFA03B4FFF7F2FF03BC02F028FF00
:100190000948804709480047FEE7FEE7FEE7FEE71B
:1001A000FEE7FEE7FEE7FEE7FEE7FEE70448054957
:1001B000054A064B704700000D2A0008ED000008B4
:1001C000C0040020C00A0020C0060020C006002095
:1001D000704700000FB4044910B503AA029800F05C
:1001E00089F910BC5DF814FB040000202DE9F041F2
:1001F0000646002410687529314616A510D0AFF3C5
:100200000080002802DA404213A507E031688A071F
:1002100001D512A502E0490704D511A5012401E08A
:10022000AFF3008000210A2206F1240709E0B0FBA9
:10023000F2FCB0FBF2F302FB1C003030785418469D
:10024000491C0028F3D123462A463046BDE8F04138
:1002500000F0F7B8000000002D0000002B000000A7
:10026000200000002DE9F05F894604464FF0000AA7
:10027000DFF874B1FB44C0F820A02046E16888474D
:10028000002874D0252806D0D4E901219047206A9F
:10029000401C2062F1E700265F462046E16888475F
:1002A0002028054607DB312D05D2781910F8200CDF
:1002B00008B10643F1E7B00701D526F00406C4F8FB
:1002C0001CA00027C4F818A02A2D09D0284602F047
:1002D00080FE38B304EB8708303DC8F8185019E0A9
:1002E00059F8041B204604EB87029161E1688847B6
:1002F000012F054618D1E069002820DA26F02006F3
:100300001DE0D8F8180000EB800005EB4000303805
:10031000C8F818002046E1688847054602F059FEF3
:100320000028EED1012F0AD02E2D08D12046E168F9
:1003300088477F1C0546022F46F02006C4DBA069D3
:10034000002803DA404246F00106A061F00701D020
:1003500026F010066C2D0BD0682D09D04C2D39D00D
:100360006A2D35D0742D35D07A2D33D016E038E093
:10037000E1682F4620468847B842054609D16C2FD0
:1003800026D04FF48060E168064320468847054642
:1003900004E06C2F1AD04FF4807006430DB3A5F122
:1003A0004100192802D8203546F400664A462946FD
:1003B000204626604E46FFF7D3FE80B101280BD0C1
:1003C000F61D26F0070000F1080956E74020E4E793
:1003D0008020D8E70020D6E706F104094DE728463B
:1003E00052E7206ABDE8F09F663700004FF0000238
:1003F00000B5134694469646203922BFA0E80C501B
:10040000A0E80C50B1F12001BFF4F7AF090728BFF5
:10041000A0E80C5048BF0CC05DF804EB890028BF71
:1004200040F8042B08BF704748BF20F8022B11F09A
:10043000804F18BF00F8012B704770477047704716
:1004400070472DE9F0470D4699469246044600F163
:1004500024080168880604D5E06921F010012160B4
:1004600000E00120A84201DD471B00E00027A16950
:100470007A1902EB0900081AA0612078C00602D49C
:100480002046AFF30080002608E0D4E901211AF8E5
:1004900006009047206A401C761C20624E45F4DB23
:1004A0002078C0060AD52046AFF3008006E0D4E9E4
:1004B000012130209047206A401C2062381EA7F19D
:1004C0000107F4DC07E0D4E9012118F805009047A2
:1004D000206A401C2062281EA5F10105F3DC20469D
:1004E000AFF300802078000602D50220BDE8F08737
:1004F0000120FBE7074B70B50D467B4400F011F877
:100500000446284600F020F810B14FF0FF3070BDCF
:10051000204670BDAF2D000001694A1C02610878B9
:10052000704700B58FB0CDE9013100210591054933
:100530007944CDE9031011466846FFF793FE0FB0EA
:1005400000BD0000E5FFFFFF007B00F0800070476A
:10055000004870475C0400207546FFF7F9FFAE467F
:1005600005006946534620F00700854618B020B5BF
:10057000FFF71CFEBDE820404FF000064FF00007DB
:100580004FF000084FF0000B21F00701AC46ACE83B
:10059000C009ACE8C009ACE8C009ACE8C0098D46A8
:1005A000704710B50446AFF300802046BDE8104008
:1005B000FFF7E8BD70B5044600688168C943C90704
:1005C00017D1816821F00101816000F0EDFD054641
:1005D0000AE000BF00F0E8FD401B022804D92068B3
:1005E0008068C043C00706D020688068C043C00749
:1005F000F0D0002070BDA06A40F01000A062E06A58
:1006000040F00100E062012070BD10B50146406A73
:10061000826A12F0500F05D0006A026BBDE81040EC
:1006200008461047816A41F4007181620168896857
:10063000C1F3424107290CD1017B51B9816A21F4F0
:1006400080718162816AC90403D4816A41F0010129
:10065000816200F0C1F910BD10B5406A816A41F0B5
:1006600040018162C16A41F00401C16200F0B6F943
:1006700010BD10B5406A00F0B0F910BDF8B5002605
:100680000446009600688168C943C9072DD0816877
:1006900041F001018160164816490068B0FBF1F095
:1006A00000E0401E00900028FBD100F07DFD0546D3
:1006B00016E000BF00F078FD401B022810D920682A
:1006C0008068C043C0070BD0A06A40F01000A06251
:1006D000E06A40F00100E06284F824600120F8BD87
:1006E00020688068C043C007E4D10020F8BD000046
:1006F0001400002040420F00144B30B41A78002040
:10070000541E0146042C02D8921C50B205E0941FDE
:10071000032C03D8C2F1030040B201465A78541E9C
:10072000032C03D8401E891C40B249B2921F032AF1
:1007300003D8801C491E40B249B29A78012A02D1DE
:1007400030BC02F04DB830BC7047000040040020BF
:10075000FEE70000014800F00FBB0000640000202D
:10076000014800F009BB000018030020014800F018
:1007700003BB0000D4020020014800F0FDBA0000D5
:100780004C020020014800F0F7BA0000900200205F
:1007900030B590F840500124AC40C56B6C600468E3
:1007A00063604368102B036803D099600068C260DF
:1007B00030BD9A600068C16030BD704772B6FEE718
:1007C00070B5224C00256019017B452939D1417B48
:1007D000532936D1817B502933D1417C0A2930D12C
:1007E000C17B01F00F012170C17B09096170017C9F
:1007F00001F00101A170017CC1F34001E170007CB6
:10080000C0F38000207100F0CFFCA06010A0FFF7C3
:10081000E1FC6278217813A0FFF7DCFC2379E27811
:10082000A17816A0FFF7D6FC1BA0A168FFF7D2FCA9
:10083000002001462A182244401CC0B21173062829
:10084000F8D36D1CEDB20C2DBDD370BD400400205B
:100850007265636569766520737563636573730A92
:100860000000000073706565645F733A256420734F
:10087000706565645F773A25640A0000506F77659C
:10088000723A25642050756D703A2564204C696772
:1008900068743A25640A00007265637654696D6570
:1008A0003A25640A000000000A49002210460A7036
:1008B0004A70CA708A700A718A608B18521CD2B250
:1008C00018730C2AF9D303490D220C31024801F0A8
:1008D00015BD00004004002008020020F8B50024E7
:1008E000009490F824202546012A12D0012280F895
:1008F00024204A681F23072A0DD20668776B521EF0
:1009000002EB820293409F430B6893401F4377633F
:1009100019E00220F8BD06680D2A0AD2376BD21FF3
:1009200002EB820293409F430B6893401F4337635F
:1009300009E0F76A0D3A02EB820293409F430B688D
:1009400093401F43F7620A68072306680A2A0AD3FE
:10095000F7680A3A02EB420293409F438B68934048
:100960001F43F76008E0376902EB420293409F4360
:100970008B6893401F4337610A68102A01D0112AFF
:1009800020D1124B02689A4217D193681B0219D4E6
:10099000936843F4000393600968102912D10C494D
:1009A0000C4A0968B1FBF2F101EB8101490000E05A
:1009B000491E00910029FBD104E0816A41F0200129
:1009C0008162012480F824502046F8BD00240140B3
:1009D0001400002040420F0070477047704700002D
:1009E0002DE9F0414FF0000704003D467ED0A06A9B
:1009F000002628B9E66284F82460204600F07EF8DC
:100A00002046FFF7D7FDA16AC90600D420B1A06A2D
:100A100040F01000A06269E0A16A21F4885141F021
:100A20000201A1626268E169237B0A4347EA43014C
:100A30000A43A1684FF48077B94209D0012907D051
:100A40005FF0000194F814C0BCF1010F02D00AE07D
:100A50003946F7E7F3B1A36A43F02003A362E36AE0
:100A600043F00103E3622368D3F804C02CF4694C1B
:100A70004CEA010CC3F804C021688B68DFF870C031
:100A800003EA0C0313438B60A168B9420BD0012920
:100A900009D00CE0DFF85CC0A3690CEB43330B43D7
:100AA00043F40061DFE7218A0D05A5F58015216873
:100AB000CB6A23F470032B43CB62216889680E4B09
:100AC0001940914208D1E662A16A21F0020141F089
:100AD0000101A162BDE8F081A06A20F0020040F0AF
:100AE0001000A062E06A40F00100E0620120F1E73E
:100AF000FDF7E1FF00E0FFFFFE0E1FFF70B586B0BF
:100B000000260546009601960296039600681A494B
:100B100088422ED11949886940F40070886188693B
:100B200000F400700490886940F0040088618869CE
:100B3000694600F0040004900320009001901048E2
:100B400000F03CFA104C0F48C4E900068020C4E9CC
:100B5000026040002061800060612020A061C0012F
:100B6000E061204600F0B2F908B1FFF727FE2C62E1
:100B7000656206B070BD0000002401400010024014
:100B80000008014008000240640000202DE9F04701
:100B9000894604463B4900683B4F0E1D90468842FB
:100BA00001D0B84207D1306810F4702F03D001256E
:100BB0002846BDE8F08794F8240001280CD00120D5
:100BC00084F824002046FFF759FD05004FF000008F
:100BD00004D084F82400EBE70220EAE7A16A40F69B
:100BE0000162914341F48071A1622168B94218D138
:100BF000326812F4702F14D0A16A41F48011A162FE
:100C00003168490505D5A16A21F4005141F48051AC
:100C1000A162A16AC9040AD5E16A21F00601E16274
:100C200006E0A26A22F48012A2624968E9E7E06263
:100C300084F82400216A15488862216A1448C86231
:100C4000216A1448086321686FF002000860206878
:100C5000816841F480718160216843464A464C3185
:100C6000206A00F061F920688168C1F342410729D8
:100C7000816803D041F48011816099E741F4A001BB
:100C8000FAE7000000240140002801400B0600089C
:100C9000730600085906000810B590F821100022CC
:100CA000022905D00421816380F82020012010BD95
:100CB00001680B6823F00E030B6001680B6823F0DA
:100CC00001030B6090F84030C46B012101FA03F37B
:100CD000636080F8211080F82020104610BD0000CD
:100CE00010B590F821100024022903D0042181635B
:100CF00001243DE001680A6822F00E020A600168E2
:100D00000A6822F001020A601A4A0168914201D180
:100D1000012121E0174A1432914201D110211BE038
:100D2000144A2832914201D1891515E0114A3C320A
:100D3000914201D189140FE00E4A5032914202D102
:100D40004FF4803108E00B4A6432914202D14FF4F3
:100D5000801101E04FF08071064A083A516001218C
:100D600080F82110002180F82010416B01B18847E4
:100D7000204610BD080002402DE9F05FC16B0C68F1
:100D800001680B68D0F840C0042202FA0CF2494D09
:100D9000DFF824A1494E4A4FDFF828B1DFF828E1F7
:100DA00022422CD05A072AD50A68920603D40A6830
:100DB00022F004020A600168A94201D1042219E06C
:100DC000514501D1402215E0B14202D14FF4806279
:100DD00010E0B94202D14FF480420BE0594502D1F4
:100DE0004FF4802206E0714502D14FF4800201E009
:100DF0004FF080622F4908394A60C16A3BE04FF0EA
:100E0000020808FA0CF818EA040F4FF000094FF036
:100E1000010235D05FEA837832D50B689B0605D492
:100E20000B6823F00A030B6080F821200168A942B7
:100E300001D1022219E0514501D1202215E0B14231
:100E400002D14FF4007210E0B94202D14FF40052C7
:100E50000BE0594502D14FF4003206E0714502D152
:100E60004FF4001201E04FF00072124908394A6055
:100E700080F82090816A00291AD0BDE8F05F084709
:100E8000082505FA0CF5254212D01B0710D50B6872
:100E900023F00E030B6090F84010C36B02FA01F1CF
:100EA0005960826380F8212080F82090016BE2E78E
:100EB000BDE8F09F080002401C00024030000240E4
:100EC00044000240580002406C00024030B528B394
:100ED00008C8134914221944B1FBF2F18900C16317
:100EE00010498163022141771A6843F6F0718A4301
:100EF000D0E900142143D0E902452C432143046981
:100F0000214344692143846921431143196000212D
:100F10004163012242770177084630BD012030BD90
:100F2000F8FFFDBF0000024070B5044690F82000B5
:100F3000002501280CD0012084F8200094F82160BD
:100F40000020012E06D084F820000225284670BD1E
:100F5000022070BD022684F82160A0632068066824
:100F600026F0010606602046FFF712FCE06A002822
:100F70002068016802D041F00E0106E021F0040172
:100F800001602068016841F00A0101602068016881
:100F900041F001010160D9E770B5044600F004F9A1
:100FA0000546601C02D004480078044400F0FCF8B8
:100FB000401BA042FAD370BD080000202DE9F84F75
:100FC000DFF8B891002409F1040A0AF1040B234662
:100FD0000F270BF1040EC9E00125A5402A40AA42C3
:100FE0007DD1674ED1F804C0ACEB0608B44532D0D1
:100FF00014DCBCF1030F3AD009DCBCF1000F2AD09D
:10100000BCF1010F1CD0BCF1020F31D11DE0BCF1CD
:10101000110F17D0BCF1120F2AD119E0B8F5881FB3
:1010200019D006DCB8F5803F15D0B8F5801F1FD168
:1010300011E0B8F5001F0ED0B8F5041F18D10AE072
:10104000CB6815E0CB681B1D12E0CB6808330FE0BE
:10105000CB680C330CE08B682BB1012B4FF00803ED
:1010600003D0456104E0042302E0056100E00023B1
:10107000FF2A01D8064601E000F104064FEA840584
:1010800001D9A5F12005D6F8008007FA05FC28EA69
:101090000C0803FA05F548EA0508C6F800804D6813
:1010A000ED0062D5374DAE6946F00106AE61AD691F
:1010B00024F0030605F001050095334D06EB050C01
:1010C000DCF80850A607360F07FA06F825EA0805E7
:1010D000DFF8B880404503D14FF0000817E044E046
:1010E000DFF8AC80404502D14FF001080FE0DFF897
:1010F000A480404502D14FF0020808E0DFF8988054
:10110000404502D14FF0030801E04FF0040808FA0F
:1011100006F848EA0508CCF808804D68D9F8006060
:10112000ED034D4601D5164300E096432E604D6811
:10113000DAF80060AD03554601D5164300E096434A
:101140002E604D68DBF80060ED025D4601D5164368
:1011500000E096432E604D68DEF80060AD027546F3
:1011600001D5164300E096432E60641C0D682A46A4
:10117000E5407FF431AFBDE8F88F00000004014086
:101180000000111000100240000001400008014062
:10119000000C014000100140001401400AB101613F
:1011A00070470904FBE700000148806870470000B1
:1011B000080000200248816802781144816070476D
:1011C00008000020074810B5016841F010010160D7
:1011D000032000F075F80F2000F006F800F024F866
:1011E000002010BD0020024070B50D4D04464FF4A4
:1011F0007A712878B1FBF0F00A490968B1FBF0F088
:1012000000F062FB48B9102C07D200222146501E84
:1012100000F036F800206C6070BD012070BD000049
:1012200008000020140000200C4808B5816941F036
:1012300001018161816901F001010091C16941F001
:101240008051C161C06900F080500090044841683D
:1012500021F0E06141F00071416008BD00100240E2
:1012600000000140002809DB00F01F02012191402D
:101270004009800000F1E020C0F800117047000034
:10128000F0B40E4B1B680C46C3F30223C3F10705F1
:10129000042D00D90425191D072901D2002300E0DF
:1012A000DB1E012606FA05F1491E214099409E40A9
:1012B000761E16403143F0BC01F07BBE0CED00E021
:1012C000064900F0070208684FF6FF03184040EA9D
:1012D0000220034A10430860704700000CED00E054
:1012E0000000FA052DE9F84305460078354CC007A3
:1012F00054D0E0690026C00008D4E06940F0805076
:10130000E061E069012600F0805000902E480168FD
:10131000C90512D40168804641F480710160FFF76D
:1013200043FF074605E000BFFFF73EFFC01B6428F0
:1013300023D8D8F80000C005F6D5206A10F4407014
:1013400021D0A98801F4407181421CD0206A1F4934
:10135000012220F440700A6000220A602062C00767
:1013600011D0FFF721FF074641F2883808E000BF9F
:10137000FFF71AFFC11B414502D90320BDE8F883DE
:10138000206A8007F4D5206A696820F44070084319
:1013900020621EB1E06920F08050E061287880076B
:1013A00005D56068A96820F440400843606028784B
:1013B000C00605D56068E96820F4800008436060D5
:1013C0000020DBE700100240007000404004424271
:1013D0002DE9F0470F46050061D0434E306800F01C
:1013E0000700B84209D2306820F007003843306067
:1013F000306800F00700B84251D128683B4C8107A3
:1014000012D5400703D5606840F4E060606028783A
:10141000000703D5606840F4605060606068A968A8
:1014200020F0F000084360602878C00728D0686882
:10143000012810D02168022810D0890700292EDA4F
:10144000616821F0030101436160FFF7ADFE804652
:1014500041F288390DE021688903EFE78901EDE762
:10146000FFF7A2FEA0EB0801494502D90320BDE821
:10147000F0876068696800F00C00B0EB810FEFD175
:10148000306800F00700B8420BD9306820F0070040
:1014900038433060306800F00700B84201D00120C6
:1014A000E5E72878400705D56068E96820F4E06042
:1014B000084360602878000706D56068296920F431
:1014C000605040EAC100606000F038F86168084A86
:1014D000C1F30311515CC840064908600648006822
:1014E000FFF782FE0020C2E7002002400010024009
:1014F000C6390008140000200C00002004480549EB
:1015000000684968044AC1F30221515CC840704731
:101510001400002000100240D63900080448054994
:1015200000684968044AC1F3C221515CC840704751
:101530001400002000100240D639000812A185B026
:101540000FC98DE80F0014A0144A00680490516878
:10155000134801F00C03042B10D0082B0ED1C1F35B
:101560008343C9031DF803000AD5516804AAC1F3D7
:101570004041515C0A4A5043B0FBF1F005B070475E
:1015800008494843FAE70000020304050607080972
:101590000A0B0C0D0E0F101001020000001002408B
:1015A00000127A0000093D002DE9F84F040070D0C8
:1015B0002078C04DC00749D06868C0F38100012879
:1015C00007D06868C0F38100022809D16868C003A9
:1015D00006D52868800339D560680028E7D035E053
:1015E0006068B0F5803F0BD010B1B0F5A02F11D0DE
:1015F000286820F480302860286820F4802002E0E9
:10160000286840F480302860606890B1FFF7CCFD16
:1016100006460AE0286840F480202860F0E700BF12
:10162000FFF7C2FD801B642873D828688003F7D5B4
:101630000CE0FFF7B9FD064605E000BFFFF7B4FD7B
:10164000801B6428F0D828688003F7D420789A4E4D
:1016500080074FF001094FF0000839D5686810F095
:101660000C0F07D06868C0F38100022809D16868B0
:10167000C00306D42868800714D52069012808D142
:1016800010E02069B0B1C6F80090FFF78DFD074665
:1016900005E00AE1FFF788FDC01B0228C4D82868CE
:1016A0008007F7D52868616920F0F80040EAC1009A
:1016B00028600DE0C6F80080FFF776FD074604E0DD
:1016C000FFF772FDC01B022823D828688007F7D4D3
:1016D000207800072CD57948A169D9B1C0F80090CD
:1016E000FFF762FD074604E0FFF75EFDC01B02281E
:1016F0000FD8686A8007F7D571484FF4FA5100682F
:10170000B0FBF1F0009000BF0098411E0091FAD2AA
:101710000EE080E0C0F80080FFF746FD074604E0D9
:10172000FFF742FDC01B022875D8686A8007F7D40E
:101730002078400760D5E8690027C00008D4E86930
:1017400040F08050E861E869012700F08050009087
:101750005C480168C90513D40168834641F480716F
:101760000160FFF721FD824606E000BFFFF71CFD88
:10177000A0EB0A0064284ED8DBF80000C005F5D5C0
:10178000E06801280AD008B1052813D0286A20F0A3
:1017900001002862286A20F0040002E0286A40F074
:1017A00001002862E06841F2883B98B1FFF7FCFC39
:1017B00082460BE0286A40F004002862EEE700BF92
:1017C000FFF7F2FCA0EB0A0159455AD8286A8007B6
:1017D000F6D50CE0FFF7E8FC824605E0FFF7E4FCF5
:1017E000A0EB0A0159454CD8286A8007F6D41FB1EE
:1017F000E86920F08050E861E06988B36968C1F366
:101800008101022944D00228C6F8608004D0FFF785
:10181000CBFC044638E034E0FFF7C6FC074604E0A2
:10182000FFF7C2FCC01B02282BD828688001F7D420
:10183000206AB0F5803F05D16868A16820F40030C7
:1018400008436860D4E908010843696821F4741109
:1018500008436860C6F86090FFF7A6FC044606E0FF
:1018600025E000BFFFF7A0FC001B022809D828686C
:101870008001F7D51BE000BFFFF796FC001B022894
:1018800002D90320BDE8F88F28688001F4D40EE067
:101890000128F7D06868226A00F48031914204D1AF
:1018A000616A00F47010884201D00120EAE700204C
:1018B000E8E700000010024000004242800442427B
:1018C000140000200070004010B5401EB0F1807F71
:1018D00001D3012010BD4FF0E02460610F2160179B
:1018E00001F067FB0020A06107202061002010BDEF
:1018F0007047704770B590F83C20012A26D001242B
:1019000080F83C40022280F83D2003685A689D68B8
:1019100022F070060A6832435A600D4B02689A4200
:1019200008D0B2F1804F05D00A4B9A4202D00A4B40
:101930009A4204D1496825F080031943916080F8E8
:101940003D40002180F83C10084670BD022070BD6B
:10195000002C0140000400400008004010B50400C5
:1019600003D094F83D0010B107E0012010BD002025
:1019700084F83C00204600F01FF8022084F83D0067
:10198000211D206801F04AF8012084F8460084F8FF
:101990003E0084F83F0084F8400084F8410084F859
:1019A000420084F8430084F8440084F8450084F839
:1019B0003D00002010BD000008B501681048B1F1DD
:1019C000804F0BD00F4A914207D1C16941F002010B
:1019D000C161C06900F00200009008BDC16941F01A
:1019E0000101C161C069002200F0010000900221E4
:1019F0001C20FFF745FCBDE808401C20FFF732BC67
:101A0000001002400004004070B5044690F83C000D
:101A1000012817D0012584F83C50022084F83D00AD
:101A20002068826822F0770222F47F428260086890
:101A3000502830D00DDC20284DD005DC98B310287C
:101A40003BD148E0022070BD302844D0402834D13A
:101A500039E0602828D0702806D0B0F5805F2CD0FF
:101A6000B0F5005F29D10AE0CB68D1E901212068F7
:101A700001F017F82068816841F0770109E0CB6830
:101A8000D1E90121206801F00CF82068816841F457
:101A90008041816011E0CA684968206801F0B6F8A9
:101AA0005021206807E016E0CA684968206801F004
:101AB000BEF86021206800F0FEFF84F83D50002051
:101AC00084F83C0070BDCA684968206801F09EF83F
:101AD00040212068EFE7226801461046EBE7704797
:101AE00070B50446006801694FF00005C9438907D5
:101AF00015D4C168C943890711D4E91E01610120C9
:101B00002077206880698007204602D0FFF7E7FF32
:101B100004E000F0CFF8204600F072F92577206845
:101B20000169C943490717D4C168C943490713D498
:101B30006FF004010161022020772068806910F4B1
:101B4000407F204602D0FFF7CAFF04E000F0B2F861
:101B5000204600F055F9257720680169C943090737
:101B600016D4C168C943090712D46FF00801016196
:101B7000042020772068C0698007204602D0FFF744
:101B8000AEFF04E000F096F8204600F039F9257722
:101B900020680169C943C90617D4C168C943C90689
:101BA00013D46FF010010161082020772068C0690C
:101BB00010F4407F204602D0FFF791FF04E000F0D0
:101BC00079F8204600F01CF9257720680169C9439F
:101BD000C90708D1C168C943C90704D1891E016179
:101BE000204600F05DF920680169C943090609D45F
:101BF000C168C943090605D46FF080010161204620
:101C0000FFF776FE20680169C943490609D4C16817
:101C1000C943490605D46FF040010161204600F038
:101C200049F920680169C94389060BD4C168C943D1
:101C3000890607D46FF0200101612046BDE870409D
:101C4000FFF757BE70BD000010B586B000210091AF
:101C5000019102910391134C036813490222134826
:101C6000A34209D18B6943F008038B61896901F0B4
:101C70000801049103210CE00D4CA3420FD18B69A4
:101C800043F008038B61896901F0080104914FF466
:101C90003071CDE9001269460392FFF78FF906B063
:101CA00010BD00000004004000100240000C014084
:101CB00000080040704770B5044690F83C000D469F
:101CC00001280AD0012084F83C0042B1042A18D02F
:101CD000082A2AD00C2A4DD139E0022070BD206894
:101CE00000F0F2FE2068816941F0080181612068FE
:101CF000816921F004018161206881692A691143A9
:101D000011E0206800F008FF2068816941F400615B
:101D100081612068816921F4806181612068816925
:101D20002A6941EA0221816124E0206800F020FF55
:101D30002068C16941F00801C1612068C16921F0D2
:101D40000401C1612068C1692A69114311E020685A
:101D500000F03AFF2068C16941F40061C161206868
:101D6000C16921F48061C1612068C1692A6941EAC1
:101D70000221C161002084F83C0070BD10B5040050
:101D800003D094F83D0010B107E0012010BD002001
:101D900084F83C00204600F01FF8022084F83D0043
:101DA000211D206800F03AFE012084F8460084F8E6
:101DB0003E0084F83F0084F8400084F8410084F835
:101DC000420084F8430084F8440084F8450084F815
:101DD0003D00002010BD000008B50068064988429B
:101DE00008D10648C16941F00401C161C06900F031
:101DF0000400009008BD00000008004000100240F0
:101E00007047000010B50446022249B104290ED0E3
:101E1000082913D094F84100012816D0012010BDE4
:101E200094F83E000128F9D184F83E200FE094F8A0
:101E30003F000128F2D184F83F2008E094F84000E8
:101E40000128EBD184F8402001E084F841200122F0
:101E5000206800F019FE0F492068884203D1426CC7
:101E600042F4004242642068884208D0B0F1804FBA
:101E700005D00949884202D00849884204D18168C6
:101E800001F00701062903D0016841F0010101605A
:101E9000002010BD002C014000040040000800405C
:101EA000034900680968884201D101F093BA70477C
:101EB000A80000207047704770470000F8B502681E
:101EC00004461068D168536910F00F0F4FF00005F9
:101ED00053D003F0010601F4907737435FD0C20777
:101EE00005D0CA0503D5226C42F0010222644207E4
:101EF00005D5DA0703D0226C42F002022264820781
:101F000005D5DA0703D0226C42F0040222640207EE
:101F100007D501F02002324303D0226C42F00802C0
:101F20002264226C002A34D0800604D5880602D5AB
:101F3000204600F016FF20684069216CC0F3801035
:101F4000090700D430B3204600F0EAFE206841695A
:101F500049061BD5416921F040014161A06BA8B140
:101F600058494163A06BFEF7BBFE002811D0A06B5F
:101F7000416B01B0BDE8F040084783060FD58B06E2
:101F80000DD52046BDE8F84000F0EBBE2046FFF737
:101F900093FFF8BD2046FFF78FFF2564F8BD266B41
:101FA0002023012E52D1C60650D5CE064ED510683C
:101FB00050680090506940062AD5A16B08684068B7
:101FC0000004000CEAD0A68D8642E7D9E085886936
:101FD000202818D0D06820F48070D0602068416933
:101FE00021F0010141612068416921F04001416116
:101FF00084F83E3025632068C16821F01001C1607B
:10200000A06BFEF749FEA08DE18D401A81B219E068
:10201000A08DE18D401A81B2E08D0028BED000294C
:10202000BCD0D06820F49070D0602068426922F063
:102030000102426184F83E3025632068C26822F0C4
:102040001002C2602046FFF736FFF8BD05062BD50B
:102050000D0629D594F83D002128F6D1A068B0F5E9
:10206000805F01D12069B0B1206A411C21622168E2
:1020700000784860E08C401E0004000CE084E4D14D
:102080002068C16821F08001C1602068C16841F00A
:102090004001C160F8BD206A0088C0F308005060AC
:1020A000206A801C2062E5E74006F3D54806F1D59A
:1020B000D168204621F04001D16084F83D3000F025
:1020C000BCF9F8BD532C000870B5040004D094F896
:1020D0003D00002510B106E0012070BD84F83C50A1
:1020E000204600F023F8242084F83D002068C168D1
:1020F00021F40051C160204600F08EFE2068016985
:1021000021F4904101612068416921F02A01416177
:102110002068C16841F40051C1602564202084F822
:102120003D0084F83E00002070BD00002DE9F0471E
:1021300086B0002500950195029503950446DFF8C9
:102140009CC10368664802210322664E80274FF433
:1021500080684FF0100A63452FD1836943F48043B0
:102160008361836903F480430493836943F0040328
:1021700083618069039200F0040004900802CDE9B5
:10218000000169463046FEF719FFCDE90085694632
:1021900030460295FEF712FF544E5348C6E90257E7
:1021A00035617561B561F561C6E9000A30468CE0BC
:1021B0006663746206B0BDE8F087DFF834C14FF0A3
:1021C000200963453DD1C36943F40033C361C3694A
:1021D00003F400330493836943F00403836180694B
:1021E000039200F0040004900420CDE90001694648
:1021F0003046FEF7E3FE0820CDE90005694630468B
:102200000295FEF7DBFE394E374844362830C6E9E2
:102210000005C6E90257356180147561C6E906906C
:102220003046FEF753FE08B1FEF7C8FAA663002257
:10223000022126207462FFF723F82620FFF712F808
:10224000B8E72C4EB342B5D1C36943F48023C361D0
:10225000C36903F480230493836943F00803836113
:102260008069CDE9008100F00800CDE90320224E0D
:1022700069463046FEF7A2FEF014CDE90005694636
:1022800030460295FEF79AFE184E174888361438E5
:10229000C6E90005C6E902573561C6E90559304669
:1022A000F561FEF713FE08B1FEF788FAA6637462C3
:1022B0000E4E0D48CC362838C6E902573561756197
:1022C000B561F561C6E9000A3046FEF7FFFD00285A
:1022D0003FF46EAFFEF772FA6AE700000038014083
:1022E0000010024000080140440002404C0200205F
:1022F0000044004000480040000C014090F83E308F
:10230000202B0ED159B152B190F83C30012B08D09E
:10231000012380F83C300023036300F0D9BD012085
:10232000704702207047000010B5044600680B4952
:10233000884206D10AA0FDF74DFF64210C4800F049
:10234000A1FE0C492068884206D10BA0FDF742FF90
:10235000BDE81040FEF734BA10BD00000044004054
:1023600072656376537563636573730A00000000DA
:1023700060030020004800405265637645535033A7
:10238000323A0A00704700002DE9F843044690F8FD
:102390003D001F4616460D4620284CD1C5B1BEB1A2
:1023A00094F83C00012846D0012084F83C004FF00E
:1023B0000008C4F84080212084F83D00FEF7F4FEB8
:1023C000A6848146E684A068B0F5805F03D004E06F
:1023D0000120BDE8F883206928B12E465FF0000592
:1023E00084F83C800EE00026FAE78021204600F0C9
:1023F000A7FDA0B9AEB116F8010B21684860E08CCA
:10240000401EE084E08C4B464FF00002009700280D
:10241000EBD14FF04001204600F092FD30B1032097
:10242000D7E735F8020BC0F30800E6E7202084F870
:102430003D000020CDE70220CBE77047FEE700001B
:10244000FEB50024164800940194144902940160DA
:1024500089158160012505730475022606614FF414
:1024600060214460C161FEF7BBFA08B1FEF7A6F92E
:1024700005200094CDE9015069460948FEF72EFA7F
:1024800008B1FEF79BF9CDE9005669460448FEF70E
:1024900025FA002801D0FEF791F9FEBD0024014085
:1024A00034000020194808B5416941F0010141613B
:1024B0004069002200F00100009011460B20FEF759
:1024C000DFFE0B20FEF7CEFE002211460C20FEF7A9
:1024D000D7FE0C20FEF7C6FE002211460D20FEF7A7
:1024E000CFFE0D20FEF7BEFE002211460E20FEF7A5
:1024F000C7FE0E20FEF7B6FE002211461020FEF7A2
:10250000BFFEBDE808401020FEF7ACBE0010024040
:1025100070B586B000241C48009401940294039482
:10252000816941F010018161816901F0100104911C
:10253000816941F020018161816901F020010491EC
:10254000816941F004018161816901F00401049114
:10255000816941F00801816180690C4E00F008003A
:102560004FF4A0550490002229463046FEF716FE8F
:1025700001200095CDE9010403200390694630460F
:10258000FEF71CFD06B070BD0010024000100140B7
:1025900010B586B000241748009401940294039467
:1025A00004944FF080410594016041F61F41C0E959
:1025B000011442F20F71C0E903148461FFF7CEF9F0
:1025C00008B1FEF7FBF84FF48050009069460948C7
:1025D000FFF71AFA08B1FEF7F1F8049404A90548C8
:1025E0000594FFF787F9002801D0FEF7E7F806B059
:1025F00010BD0000A800002010B58EB00024079484
:10260000089409940A940B941C2168460C94FDF7D5
:10261000EDFE2348214901604721C0E9011440F241
:10262000CF71C0E9031480218161FFF797F908B1E8
:10263000FEF7C4F84FF48050079007A91848FFF739
:10264000E3F908B1FEF7BAF81548FFF797FB08B1B0
:10265000FEF7B4F80B940BA911480C94FFF74AF954
:1026600008B1FEF7ABF86020CDE90004029408221F
:1026700069460B480494FFF71EFB08B1FEF79EF86D
:102680000C2269460648FFF716FB08B1FEF796F8DC
:102690000348FFF7D9FA0EB010BD00000004004057
:1026A000F000002010B58AB0002407941C21684671
:1026B0000894FDF79BFE1E481C4901604721C0E9B4
:1026C000011440F2E731C0E903148461FFF756FBBF
:1026D00008B1FEF773F8079407A915480894FFF7A7
:1026E00009F908B1FEF76AF86020CDE90004029408
:1026F000002269460E480494FFF7DDFA08B1FEF7A0
:102700005DF8042269460A48FFF7D5FA08B1FEF7DA
:1027100055F80C2269460648FFF7CDFA08B1FEF7D6
:102720004DF80348FFF790FA0AB010BD00080040CA
:10273000380100200C4810B50A4901604FF4E1311E
:102740004160002181600C22C160C0E904128161F6
:10275000C161FFF7B9FC002803D0BDE81040FEF7C7
:102760002DB810BD00380140800100200C4810B584
:102770000A4901604FF416514160002181600C222A
:10278000C160C0E904128161C161FFF79DFC0028AE
:1027900003D0BDE81040FEF711B810BD0044004062
:1027A000C40100200C4810B50A4901604FF4E13122
:1027B0004160002181600C22C160C0E90412816186
:1027C000C161FFF781FC002803D0BDE81040FDF790
:1027D000F5BF10BD0048004008020020FEE70000E1
:1027E0002DE9F0410C46214EDFF88480051E4FF4A0
:1027F00080514FF0000709DD01224046FEF7CEFC74
:10280000C5F10A006421484330600DE04FF000023A
:10281000404606DAFEF7C2FC6FF0630045433560C0
:1028200002E0FEF7BBFC3760104D4FF480612D1DB8
:10283000002C0BDD4FF001024046FEF7AFFCC4F167
:102840000A00642148432860BDE8F0814FF000028F
:10285000404606DAFEF7A2FC6FF0630044432C60AA
:10286000F2E7FEF79BFC2F60EEE700003408004023
:1028700000100140FEE770470449012802D0002003
:10288000086070474FF47A70FAE700004008004093
:102890007047000030B43B4800214318425C491C9B
:1028A000C9B283F832200329F7D3C17880F83510F4
:1028B000017980F83610344AD0E90213C2E90013D6
:1028C00000214418535C491CC9B284F837300829E8
:1028D000F7D3D0E90413C2E9001300214418535C74
:1028E000491CC9B284F83F300829F7D3427E817E63
:1028F00002EBC20303EB021201EB820101860A0A1A
:1029000080F8472080F84810C17E027F41EA4201EA
:102910001D4A80F84910083A016A116000214418E4
:10292000535C491CC9B284F84A300429F7D3416A80
:10293000116000214418535C491CC9B284F84E3020
:102940000429F7D3816A116000214418535C491CA3
:10295000C9B284F852300429F7D310F82C1FFF2392
:1029600080F82A10417880F82B10817880F82C109C
:10297000C17880F82D100349282230BC3231034839
:10298000FFF702BDE003002028000020080200201D
:10299000FEF710BC30B593B028216846FDF726FD40
:1029A00014210AA8FDF722FD002501200F9510959E
:1029B0001195010412958DE8230004904FF4E01066
:1029C000CDE90810022407946846FEF7EDFD08B132
:1029D00072B6FEE70AA90F2081E831004FF480604B
:1029E000CDE90D0502210AA8FEF7F2FC08B172B686
:1029F000FEE74FF4004011900F940FA8FEF772FC11
:102A0000002801D072B6FEE713B030BD7047000059
:102A10000148FFF765B80000A8000020F0B5026883
:102A2000164B174C174D4FF08047984205D0B842CF
:102A300003D0A04201D0A84203D122F070064A6818
:102A40003243984205D0B84203D0A04201D0A842F8
:102A500003D122F44074CA6822434C6922F08002F8
:102A6000224302608A68C2620A688262984201D187
:102A70000969016301214161F0BD0000002C0140A2
:102A8000000400400008004010B501F01F030121C0
:102A9000046A99408C430462016A9A4011430162BE
:102AA00010BD10B5846842EA032224F47F440A432F
:102AB0002243826010BD826822F070020A4342F015
:102AC000070181607047000030B5026A22F0010200
:102AD0000262026A4368846924F073050C682C431F
:102AE00022F002058A682A430A4DA8420BD122F03F
:102AF0000805CA6823F440732A434D6922F0040292
:102B00001D438B692B4343608461496841630262C2
:102B100030BD0000002C014030B5026A22F01002E6
:102B20000262026A436884690D6824F4E64444EA58
:102B300005248D6822F0200242EA05120B4DA842BE
:102B40000ED1CD6822F0800242EA05124D6923F4CD
:102B5000406343EA85038D6922F0400243EA85031E
:102B60004360846149688163026230BD002C01408A
:102B700030B5026A22F480720262036A4268C46954
:102B800023F4007324F073050C682C438D6843EA2A
:102B900005230C4DA8420ED1CD6823F4006343EA0F
:102BA00005234D6922F4405242EA05128D6923F44F
:102BB000806342EA05124260C4614968C1630362EE
:102BC00030BD0000002C014030B5026A22F4805272
:102BD0000262046A4268C3690D6823F4E64343EA6B
:102BE00005238D6824F4005444EA0534064DA842B8
:102BF00004D14D6922F4804242EA85124260C361E9
:102C000049680164046230BD002C014010B5036ABC
:102C1000046A24F001040462846924F0F00444EAA4
:102C2000021423F00A020A438461026210BD10B547
:102C3000036A23F0100303628369046A23F4704378
:102C400043EA023224F0A00343EA011182610162E7
:102C500010BD10B5406A0021C185C184FFF72CF971
:102C600010BD70B5446A2068406994F83D10C0F307
:102C7000C0100025212904D118B1E584204600F0B8
:102C800067F82068406994F83E10C0F3801022294C
:102C900004D118B1E585204600F042F8206C40F0E0
:102CA000100020642046FFF707F970BD10B50146FB
:102CB000406A0968096889061BD40021C18501683A
:102CC000CA6822F48072CA6001684A6922F001026F
:102CD0004A6101684A6922F040024A61202180F875
:102CE0003E10016B012904D10168CA6822F010026C
:102CF000CA60016B012902D0FFF716FB10BD818D60
:102D0000FFF7D9F810BD10B5406A016B012902D058
:102D1000FFF738FB10BD818D4908FFF7CCF810BDD7
:102D20000168CA6822F49072CA6001684A6922F098
:102D300001024A61016B012904D10168CA6822F0CD
:102D40001002CA60202180F83E1000210163704704
:102D50000168CA6822F0C002CA60202180F83D10D4
:102D6000704708B590F83E10222901D0022008BD16
:102D700082684FF480539A4201D1016921B1816A7E
:102D80009A421BD04AB10AE00268816A5268C2F3D3
:102D900008020A80816A891C08E0026972B102682F
:102DA000526802F07F020A70816A491C8162C18DFB
:102DB000491E0904090CC18503D019E00268526854
:102DC000F1E70168CA6822F02002CA600168CA6897
:102DD00022F48072CA6001684A6922F001024A61E5
:102DE000202180F83E10016B012903D0FFF79CFAE7
:102DF000002008BD002101630168CA6822F01002AA
:102E0000CA6001680A68D20602D50A68496800915A
:102E1000818DFFF750F8EBE770B504460068016953
:102E2000E26821F44051114301612169A06808431F
:102E3000616908432168CA6841F20C639A430243FE
:102E4000CA6020684169A26921F44071114341615F
:102E50001E492068884202D1FEF760FB01E0FEF7C0
:102E60004DFB00EBC00101EB0012606864218000A3
:102E7000B2FBF0F3B3FBF1F36FF018067343B2FB50
:102E8000F0F5B2FBF0F605EB8305322303EB0515F5
:102E9000B5FBF1F5B6FBF1F605F0F00505EB06150F
:102EA000B2FBF0F6B2FBF0F0B0FBF1F06FF01802FD
:102EB000504306EB800003EB0010B0FBF1F02168FB
:102EC00000F00F002844886070BD00000038014009
:102ED00038B58162828500251346044605642220A8
:102EE00084F83E00A26B13489062A26B1248D06235
:102EF000A26B12481063A06B0A4645632168A06B61
:102F0000091DFEF711F8206801684168009184F8F6
:102F10003C50C16841F48071C1602068416941F052
:102F2000010141612068416941F040014161002097
:102F300038BD0000AD2C0008072D0008632C0008E8
:102F40002DE9F041984617460E460446069D1DE0C1
:102F5000681C1BD02DB1FEF727F9A0EB0800A84292
:102F600014D92068C16821F4D071C160206841691A
:102F700021F001014161202084F83D0084F83E00E9
:102F8000002084F83C000320BDE8F0812068006840
:102F900036EA000004D00020B842D9D00020F3E780
:102FA0000120F9E70148FEF789BF0000C4010020B5
:102FB000FEE70907090E002804DB00F1E02080F895
:102FC0000014704700F00F0000F1E02080F8141D9D
:102FD000704730380A2801D201207047002070471E
:102FE000704700002DE9F05F0024824688462046A5
:102FF0002546264605E000BF1AF800102E291FD0EE
:10300000401C4045F8DB00271AF80700303800F074
:10301000C7FA2A46334600F01BFA05460E46A74279
:1030200005D00022154B00F0D3FA05460E467F1C52
:10303000A742E9DDA8F101074FF0204BA41C13E0E3
:10304000441E0027F4E700BF1AF80700303800F0EC
:10305000A7FA42464B4600F0FBF95A46084B00F0EF
:10306000B7FA804689467F1EA742EDDA42464B46B4
:1030700028463146BDE8F05F00F0EAB90000244080
:103080009999B93F2DE9F0410F464B49054600207B
:103090000A784A4E04464FF001080AB1002126E0A2
:1030A00081F80080452006F8640F4E207070454975
:1030B0004348C6E9010144490020C6E903010B2049
:1030C00030750A2070750D20B0750020F075BDE8D0
:1030D000F0816A5C242A09D16A18D378472B05D17C
:1030E0001379472B02D15279412A28D0491CB94281
:1030F000EFDB2A5C2918303A02EB820C4B786FF038
:103100002F0202EB4C0C634486F8783091F802C031
:10311000CB78ACF1300C0CEB8C0C02EB4C0C634418
:1031200086F879304B790979303901EB810102EB6E
:103130004101194486F87A100A30014605E0C81D9D
:10314000D7E72A5C2C2A10D0401CB842F9DB621A5F
:103150006818511CFFF746FFC6E91A012819807844
:1031600086F86400201D024605E0441EEFE7295C56
:103170002C291FD0401CB842F9DBA11AA818491C01
:10318000FFF730FFC6E91C012819817886F8651021
:1031900096F878103B299AD896F879103B2996D85A
:1031A00096F87A103B2992D8007931288FD186F889
:1031B0007B808CE7441EE0E71800002060030020BD
:1031C00077BE9F1A2FDD5E4000A888402DE9F041B0
:1031D000FDF7EAFF2D4F7968401AB0F57A7F53D991
:1031E000FDF7E2FF2A4C786094F87A00401CC1B2E7
:1031F000002084F87A103B2906D984F87A0094F8E4
:103200007910491C84F8791094F879103B2906D973
:1032100084F8790094F87810491C84F8781094F8B0
:1032200078103B2901D984F8780097F9010080468D
:1032300000F0B6F905460E46164A174B00F0C8F9DD
:103240002A46334600F0C4F94FF02042134B00F0F9
:10325000FFF8C4E91A0128463146114A114B00F023
:10326000B7F92A46334600F0B3F94FF0C0420E4B8F
:1032700000F0EEF8C4E91C0108F1010040B27870DA
:10328000322801DDCE207870BDE8F08118000020E2
:1032900060030020C7BAB88D06F0463F1F924C402D
:1032A000613255302AA9533FD051514004490A6830
:1032B0005206FCD5024AC1B2121D116070470000CF
:1032C0000038014010B5FFF781FFFDF715FA0348FC
:1032D000C078BDE81040FFF7CFBA000040040020DE
:1032E00010B508211648FEF78DFD0C211448FEF795
:1032F00089FD144940F2DC500860091D0860002176
:103300001148FEF77FFD04210F48FEF77BFD0F48B3
:1033100000240460001D04600C210B48FEF772FDC0
:103320000A480C3004600A4C811400222046FDF744
:1033300035FF002221152046BDE81040FDF72EBFC5
:10334000F00000203C040040380100203408004018
:1033500000100140FDF736FFFFF71CFBFFF7D8F820
:10336000FFF7A0F8FFF76CF8FFF700FAFFF7E2F9B4
:10337000FFF718FAFFF740F9FFF794F9FFF708F99C
:1033800002220D490D48FDF701FC64220C490D484D
:10339000FEF7B4FFFDF788FAFFF7A2FF64210848A3
:1033A000FFF770FE08A0FCF715FF00BFFFF78AFFCC
:1033B0003220FDF7F1FDF9E7000000203400002085
:1033C00060030020C401002068656C6C6F20797177
:1033D000790000002DE9F0411848194C194DD0E949
:1033E0001A12C4E90212D0E91C12C4E9041210F83E
:1033F000641FE17041782171017D2176417D617604
:10340000807DA0762878E0760F48006800B1012022
:103410000E4E20774FF47A773088B0FBF7F000F04B
:10342000BFFA44F8200F7088B0FBF7F0207368787B
:10343000A073BDE8F041FFF72DBA00006003002043
:10344000E003002030000020400800400000002081
:1034500010B591EA030F48BF83F0004300F1BE812D
:10346000841A71EB030C05D2121943EB0C03001BF9
:1034700061EB0C01DFF824E14FEA1154A4EB135C7B
:103480001EEA430F18BF9EEA445F73D023EA0E037F
:10349000DCF1200E21EA045143F4801332D322FAE6
:1034A0000CFE10EB0E0023FA0CFE41EB0E01CCF1EA
:1034B000200E03FA0EFE10EB0E0051F10001B1F5E3
:1034C000801FCCF1200E32D201EB045112FA0EF221
:1034D000BDE8104058BF7047401C38BF5FEA420249
:1034E00018BF7047002814BF20F0010041F100010F
:1034F0004FEA410313F5001F38BF7047A1F1C041E7
:1035000000F05EB9012A43EB0302ACF1200CDCF1C0
:103510001F0E32BF4FF0000E23FA0CF310EB030026
:1035200041EB0451B4EB115FD0D0A1EB045101F594
:10353000801149085FEA300001EB04510ED350F1CD
:10354000000038BF12FA0EFE08D1BDE81040C9E7EE
:10355000401C38BF5FEA4202CAD1C3E7BDE8104051
:103560004FEA410313F5001F38BF7047A1F1C04176
:1035700000F026B99EEA445F08D011EA5E0FBDE86C
:10358000104004BF01F0004100207047BDE810402A
:1035900070B500F0C7F800BF64FBBE3E0000E0FF5E
:1035A00010F0004248BF4042B0FA80F310FA03F135
:1035B0000AD0C3F11D0303F580634FEA415002EBCB
:1035C000035202EBD12170474FF00000704700001A
:1035D000DFF848C170B51CEA111E1EBF1CEA1315A6
:1035E0009EEA0C0F95EA0C0F00F06F8081EA03044D
:1035F00023EA4C134EEAD47E21EA4C1141F48011A7
:1036000043F48013AE44A1FB024CA0FB0365AEF172
:103610007F7E361955EB0C05A1FB034C4CF10003E2
:10362000A0FB021C16EB0C06654153F10003094296
:1036300018BF46F0010613F4007F0BD14FEA0331A7
:103640004FEA0530340341EA155140EA16506FF055
:1036500003020AE04FEAC3214FEAC520F40241EA1F
:10366000555140EA56506FF0020202EB2E4201EB38
:10367000025585EACE710AD05FEA440C18BF24F0E7
:10368000004450F1000041F1000120EAD47040F202
:10369000FE7C624500D270BDA84214BF4FF080444A
:1036A0004FF04044002E08BF0024BEF1806FA8BF39
:1036B000A1F1C041BDE8704080F282804FF000006F
:1036C00001F1C04101F0004170479EEA0C0F0CEA85
:1036D000131518BF95EA0C0F06D04FF0000081EAD1
:1036E000030E0EF0004170BD00F01CF88900013E91
:1036F00000F007B800F009B84FEA430C5FEA5C5CE1
:1037000008D081EA030100F05BB84FEA410C5FEAA0
:103710005C5CF6D14FF00000014970470000FF07E4
:103720000000F87F0EF1020E2EF0030E5EF8046B1F
:10373000364205D4012A43EB030515F5001F12D8C4
:10374000012841EB010C1CF5001F0CD80ED14FEAEB
:10375000D17C15F5001F0CEB4C0C0CF1020C08BFD2
:103760004CEBD37C04E04FF0080C01E04FEAD37C33
:103770000CEB4C0526FA05F606F00706B6F1040C2C
:1037800006D20EEB860CBDE870404CF0010C604791
:10379000DFE80CF0090B02024FF000414FF000008F
:1037A000A1F5002170BD19461046012851EB010416
:1037B00018BFD4F5001484BF002001F0004170BD93
:1037C0000808A0F500114FEA3101704710B591EAE1
:1037D000030F48BF83F000433FF542AE841A71EBFC
:1037E000030C07D212198CF0004C43EB0C03001BA6
:1037F00061EB0C01DFF8A4E14FEA1154A4EB135C78
:103800001EEA430F18BF9EEA445F00F0B08023EA2F
:103810006E03524221EA0451C3EB6E0338BF5B1EB4
:10382000DCF1200E25D322FA0CFE10EB0E0043FA39
:103830000CFE41EB0E01CCF1200E03FA0EFE10EB54
:103840000E0051F10001CCF1200E29D412FA0EF233
:1038500001EB0451BDE8104058BF7047401C1CBF2D
:10386000B2F1004F704700280CBF491C20F0010046
:10387000704712EB020E43EB030218BF4FF0010E2C
:103880004EEA4202ACF1200CDCF11E0E54D943FA90
:103890000CFE10EB0E0051F1FF31CCF11E0ED5D510
:1038A0000EF1010E12FA0EFE404141EB010101EB57
:1038B000445C5FEA5C5C10D910EBDE7001EB0451F4
:1038C00038BFBEF1004FBDE8104018BF7047002858
:1038D0000CBF491C20F00100704730D24FEAD42CB5
:1038E00011F5001124F400641BD0B1FA81F20B3AF7
:1038F000A41AA41ED2F12003914030FA03F3194315
:10390000904001EBCC71002C01EB0451BDE810405C
:10391000A8BF704701F1C0414FF0000001F0004125
:103920007047B0FA80F310FA03F100D110BDE41A29
:10393000173C4805C90AE4E701EB045110BD4910E2
:1039400001EB0451BDE810404FEA300002E04FF0B7
:10395000000170474A0008BF0042F8D0B2F5001FCE
:1039600028BF704701F000414FF0000070479EEA09
:10397000445F07D011EA5E0FBDE8104004BF00218C
:1039800000207047BDE8104070B5FFF7CBFE00BFC8
:1039900040DFF63E83F00041104670470000E0FF34
:1039A000B0FA80F310FA03F2C3F19D030AD0D905EF
:1039B00001EB1220530638BF704700F1010008BF29
:1039C00020F001007047000000000000000001022C
:1039D00003040607080900000000010203040400B4
:1039E00000080000000000000002000100001000BC
:1039F000103A0008000000203400000028010008F0
:103A0000443A0008340000208C0A000044010008F9
:103A10000000000000000000010000001000000095
:103A2000000000000024F40000F600000000000088
:103A30000000000000000000000000000000000086
:043A40000000000082
:04000005080000ED02
:00000001FF
